:100000000C945E000C9486000C9486000C94860080
:100010000C9486000C9486000C9486000C94DF03EC
:100020000C9486000C9486000C9486000C94860038
:100030000C9486000C9486000C9486000C94860028
:100040000C9495030C9486000C9485040C945F0426
:100050000C9486000C9486000C9486000C94860008
:100060000C9486000C948600020000000800020137
:100070000000030407000000000000000000000072
:1000800000250028002B0000000000240027002A83
:100090000004040404040404040202020202020331
:1000A000030303030301020408102040800102043B
:1000B00008102001020408102000B70411241FBEFC
:1000C000CFEFD8E0DEBFCDBF11E0A0E0B1E0EEEBB6
:1000D000FEE002C005900D92AC34B107D9F722E0E2
:1000E000ACE4B1E001C01D92A831B207E1F710E025
:1000F000CEE5D0E004C02197FE010E945207CD3525
:10010000D107C9F70E9456050C945D070C940000B6
:1001100090E0FC01EB55FF4F24918F569F4FFC015F
:100120008491882399F090E0880F991FFC01E9578A
:10013000FF4FA591B491FC01E358FF4F8591949135
:100140008FB7F894EC91E22BEC938FBF089590E079
:10015000FC01E759FF4F2491FC01EB55FF4F34910F
:10016000FC01EF56FF4FE491EE23C9F0222339F052
:10017000233001F1A8F4213019F1223029F1F0E007
:10018000EE0FFF1FE358FF4FA591B4918FB7F8947E
:10019000EC91611126C030953E233C938FBF0895AA
:1001A0002730A9F02830C9F0243049F78091800029
:1001B0008F7D03C0809180008F7780938000DFCF98
:1001C00084B58F7784BDDBCF84B58F7DFBCF8091E5
:1001D000B0008F778093B000D2CF8091B0008F7D38
:1001E000F9CF3E2BDACF3FB7F89480916001909120
:1001F0006101A0916201B091630126B5A89B05C081
:100200002F3F19F00196A11DB11D3FBFBA2FA92F95
:10021000982F8827BC01CD01620F711D811D911D92
:1002200042E0660F771F881F991F4A95D1F70895FE
:100230008F929F92AF92BF92CF92DF92EF92FF92F6
:100240006B017C010E94F3004B015C01C114D104DD
:10025000E104F104B9F00E94F300681979098A09F0
:100260009B09683E73408105910580F321E0C21A25
:10027000D108E108F10888EE880E83E0981EA11CE1
:10028000B11CE4CFFF90EF90DF90CF90BF90AF9084
:100290009F908F900895AF92BF92CF92DF92EF928E
:1002A000FF920F931F93CF93DF936C017B018B0120
:1002B000040F151FEB015E01AE18BF08C017D10770
:1002C00059F06991D601ED91FC910190F081E02DFA
:1002D000C6010995892B79F7C501DF91CF911F914F
:1002E0000F91FF90EF90DF90CF90BF90AF90089567
:1002F000FC01538D448D252F30E0842F90E0821B2C
:10030000930B541710F0CF96089501970895FC01B0
:10031000918D828D981761F0A28DAE0FBF2FB11D08
:100320005D968C91928D9F5F9F73928F90E0089560
:100330008FEF9FEF0895FC01918D828D981731F01A
:10034000828DE80FF11D858D90E008958FEF9FEF6E
:100350000895FC01918D228D892F90E0805C9F4F44
:10036000821B91098F739927089584E691E00E947A
:10037000A90121E0892B09F420E0822F089580E073
:1003800090E0892B29F00E94B50181110C940000A6
:100390000895FC01A48DA80FB92FB11DA35ABF4F1A
:1003A0002C91848D90E001968F739927848FA68974
:1003B000B7892C93A089B1898C91837080648C93C8
:1003C000938D848D981306C00288F389E02D808177
:1003D0008F7D80830895EF92FF920F931F93CF93A9
:1003E000DF93EC0181E0888F9B8D8C8D98131AC070
:1003F000E889F989808185FF15C09FB7F894EE8957
:10040000FF896083E889F9898081837080648083B3
:100410009FBF81E090E0DF91CF911F910F91FF90FE
:10042000EF900895F62E0B8D10E00F5F1F4F0F73A6
:100430001127E02E8C8D8E110CC00FB607FCFACF61
:10044000E889F989808185FFF5CFCE010E94C90135
:10045000F1CFEB8DEC0FFD2FF11DE35AFF4FF08232
:100460009FB7F8940B8FEA89FB8980818062CFCF98
:10047000CF93DF93EC01888D8823B9F0AA89BB89DB
:10048000E889F9898C9185FD03C0808186FD0DC0C6
:100490000FB607FCF7CF8C9185FFF2CF808185FFE7
:1004A000EDCFCE010E94C901E9CFDF91CF91089530
:1004B000BF92CF92DF92EF92FF920F931F93CF9351
:1004C000DF938C01B42E6C018EE0C80ED11CD0E0FD
:1004D000C0E0E62EF12CB7010C2E02C07595679591
:1004E0000A94E2F76170F60181916F010E94A70002
:1004F0002196CB1580F361E0F80185850E94A70065
:1005000060E0F8018585DF91CF911F910F91FF90F9
:10051000EF90DF90CF90BF900C94A700FC018689EC
:100520008F3F71F021853285662329F0232B31F42A
:1005300061E00C94A70021303105D1F360E0F9CFE0
:100540000895EF92FF921F93CF93DF93EC01162F44
:100550007A01862F0E9488001E8BFA86E986E88140
:10056000F9810484F585E02D60E0CE01DF91CF9123
:100570001F91FF90EF9009940F931F93CF93DF93F8
:10058000EC01162F042F61E0413009F060E08B850B
:100590000E94A7008C858F3F19F060E00E94A700A1
:1005A000023079F08C8148E084FD0CC0612F70E04E
:1005B00084E0759567958A95E1F744E0CE010E9445
:1005C000580244E0612FCE01DF91CF911F910F912E
:1005D0000C945802DC01ED91FC910684F785E02D26
:1005E00041E0099581E090E00895DC01ED91FC91F6
:1005F0000684F785E02D40E009940F931F93CF9375
:10060000DF93EC01423018F08C8188608C834F833B
:100610006887222329F0413019F48C8184608C830F
:1006200064E670E080E090E00E9418016C8164FD57
:100630005CC0E881F9810684F785E02D42E063E043
:10064000CE0109958BE496E40197F1F7E881F981F1
:100650000684F785E02D42E063E0CE01099503E5CD
:1006600012E0C8010197F1F7E881F9810684F78566
:10067000E02D42E063E0CE010995C8010197F1F752
:10068000E881F9810684F785E02D42E062E0CE0141
:100690000995C8010197F1F76C816062CE010E9453
:1006A000F5028BEE90E00197F1F784E08D836CE02A
:1006B000CE010E94F50261E0CE010E94F5028BE3BB
:1006C0009FE10197F1F782E08E8366E0CE010E9400
:1006D000F502E881F9810484F585E02D6FEFCE0104
:1006E000DF91CF911F910F9109946062CE010E941A
:1006F000F5028BE496E40197F1F76C816062CE011C
:100700000E94F50203E512E0C8010197F1F76C8140
:100710006062CE010E94F502BCCF0895089508954D
:1007200090E080E008950E9458071F920F920FB644
:100730000F9211242F933F938F939F93AF93BF9367
:1007400080915C0190915D01A0915E01B0915F018B
:1007500030915B0123E0230F2D3758F50196A11D41
:10076000B11D20935B0180935C0190935D01A09388
:100770005E01B0935F018091600190916101A09151
:100780006201B09163010196A11DB11D80936001CA
:1007900090936101A0936201B0936301BF91AF9107
:1007A0009F918F913F912F910F900FBE0F901F90AF
:1007B000189526E8230F0296A11DB11DD2CF1F92D6
:1007C0000F920FB60F9211242F933F934F935F9385
:1007D0006F937F938F939F93AF93BF93EF93FF9309
:1007E0008091570190915801A0915901B0915A01FF
:1007F000892B8A2B8B2BC1F190915601809100009F
:100800008927809300008091570190915801A09111
:100810005901B0915A01181619061A061B069CF4C4
:100820008091570190915801A0915901B0915A01BE
:100830000197A109B1098093570190935801A093A2
:100840005901B0935A01FF91EF91BF91AF919F91E0
:100850008F917F916F915F914F913F912F910F9069
:100860000FBE0F901F90189580910001E8E6F0E010
:10087000E4919FEF90930001E13051F030F0E230CD
:1008800069F060E00E94A700DECF10926E00F9CF01
:1008900090916F009D7F90936F00F3CF90917000C7
:1008A0009D7F9093700091E09093B0009091B10083
:1008B000987F94609093B1001092B300E2CF1F92A2
:1008C0000F920FB60F9211242F933F934F935F9384
:1008D0006F937F938F939F93AF93BF93EF93FF9308
:1008E00084E691E00E94C901FF91EF91BF91AF9121
:1008F0009F918F917F916F915F914F913F912F9138
:100900000F900FBE0F901F9018951F920F920FB669
:100910000F9211242F938F939F93EF93FF93E09166
:100920007401F09175018081E0917A01F0917B0171
:1009300082FD1BC0908180917D018F5F8F7320911C
:100940007E01821741F0E0917D01F0E0EC59FE4F0D
:10095000958F80937D01FF91EF919F918F912F91C2
:100960000F900FBE0F901F9018958081F4CFCF93FA
:10097000DF93109267011092660188EE93E0A0E089
:10098000B0E08093680190936901A0936A01B093ED
:100990006B0181E191E0909365018093640185ECA6
:1009A00090E0909371018093700184EC90E09093BB
:1009B00073018093720180EC90E0909375018093B5
:1009C000740181EC90E0909377018093760182EC42
:1009D00090E0909379018093780186EC90E0909379
:1009E0007B0180937A0110927D0110927E0110921A
:1009F0007F0110928001109204021092030283E2A0
:100A000091E0909302028093010288E080930C02AF
:100A10008FEF80930D0289E080930E0284E0809333
:100A20000F0285E08093100286E08093110287E038
:100A30008093120210921302109214021092150267
:100A400010921602CFE0D2E089910E94880082E0E5
:100A5000C331D807C9F780910C020E9488008091A9
:100A60000D028F3F11F00E94880080910E020E94BB
:100A700088001092050260E080910C020E94A7009D
:100A800060E080910E020E94A70080910D028F3FCE
:100A900019F060E00E94A7008FEF80931702109278
:100AA0000B0210920A02DF91CF910895CF93DF934A
:100AB000CDB7DEB728970FB6F894DEBF0FBECDBF17
:100AC000789484B5826084BD84B5816084BD85B529
:100AD000826085BD85B5816085BD80916E00816035
:100AE00080936E00109281008091810082608093DB
:100AF00081008091810081608093810080918000DD
:100B00008160809380008091B10084608093B10007
:100B10008091B00081608093B00080917A00846001
:100B200080937A0080917A00826080937A0080912D
:100B30007A00816080937A0080917A008068809347
:100B40007A001092C100E0917401F091750182E089
:100B50008083E0917001F09171011082E091720147
:100B6000F09173018FEC808310927C01E091780109
:100B7000F091790186E08083E0917601F091770130
:100B8000808180618083E0917601F091770180819E
:100B900088608083E0917601F091770180818068A0
:100BA0008083E0917601F091770180818F7D808351
:100BB00020E042E060E181E092E00E94FD024CE032
:100BC00050E063E371E081E092E00E944B0180918C
:100BD000050190910601A0910701B09108018D8354
:100BE0009E83AF83B8878091090190910A01A091FB
:100BF0000B01B0910C0189839A83AB83BC83209154
:100C000008028FEF820F223008F081E090E03091EF
:100C100009028C0F9D1FFC013031D9F52430C9F534
:100C20006181606881E092E00E94F5024AE050E054
:100C300060E471E081E092E00E944B0180E48093E7
:100C40007C0080917A00806480937A0080917A00A1
:100C500086FDFCCF609178007091790090E080E093
:100C6000611571058105910511F00E94E60600E00D
:100C700010E068EE73E080E090E00E94180101153A
:100C80001105B9F30E94B501882399F30E94000071
:100C9000F0CF6581C6CF8F929F92AF92BF92CF92D5
:100CA000DF92EF92FF92CF93DF93EC01688179811D
:100CB0008A819B81611571058105910521F464E2AA
:100CC00079ED8BE597E02DE133EF41E050E00E94B4
:100CD000EF0649015A019B01AC01A7EAB1E40E9469
:100CE0000E076B017C01ACEEB4EFA50194010E94EC
:100CF0001C07C60ED71EE81EF91EF7FE06C081E0CF
:100D0000C81AD108E10880E8F80AC882D982EA82C4
:100D1000FB82C701B6019F77DF91CF91FF90EF90E3
:100D2000DF90CF90BF90AF909F908F9008958F925B
:100D30009F92AF92BF92CF92DF92EF92FF9260911B
:100D400001017091020180910301909104016115EC
:100D500071058105910521F464E279ED8BE597E059
:100D60002DE133EF41E050E00E94EF0649015A01C6
:100D70009B01AC01A7EAB1E40E940E076B017C0164
:100D8000ACEEB4EFA50194010E941C07C60ED71E5D
:100D9000E81EF91EF7FE06C081E0C81AD108E10876
:100DA00080E8F80AC0920101D0920201E0920301AA
:100DB000F0920401C701B6019F77FF90EF90DF909A
:100DC000CF90BF90AF909F908F9008956093010156
:100DD0007093020180930301909304010895052EFE
:100DE00097FB1EF400940E94060757FD07D00E944F
:100DF000210707FC03D04EF40C940607509540954C
:100E0000309521953F4F4F4F5F4F089590958095B6
:100E1000709561957F4F8F4F9F4F08950E944307B4
:100E2000A59F900DB49F900DA49F800D911D11243E
:100E30000895B7FF0C940E070E940E07821B930BB8
:100E40000895A1E21A2EAA1BBB1BFD010DC0AA1F0B
:100E5000BB1FEE1FFF1FA217B307E407F50720F023
:100E6000A21BB30BE40BF50B661F771F881F991F9E
:100E70001A9469F760957095809590959B01AC01E7
:100E8000BD01CF010895A29FB001B39FC001A39FF0
:100E9000700D811D1124911DB29F700D811D1124B3
:100EA000911D0895EE0FFF1F0590F491E02D099418
:0E0EB00081E090E0F8940C945D07F894FFCF79
:100EBE00FF010000000040145400401050000000DC
:100ECE0000EB014B0178013802A90187019B01005B
:100EDE00000000EA024B0190038F03FD02A1028E77
:100EEE0002BC02537065636B49542076302E31007C
:0C0EFE00435720547261696E6572000059
:00000001FF
